{
  "contractName": "Escrow",
  "abi": [
    {
      "inputs": [
        {
          "internalType": "address",
          "name": "_tokenAddress",
          "type": "address"
        }
      ],
      "stateMutability": "nonpayable",
      "type": "constructor"
    },
    {
      "inputs": [],
      "name": "buyer",
      "outputs": [
        {
          "internalType": "address",
          "name": "",
          "type": "address"
        }
      ],
      "stateMutability": "view",
      "type": "function",
      "constant": true
    },
    {
      "inputs": [],
      "name": "currentState",
      "outputs": [
        {
          "internalType": "enum Escrow.State",
          "name": "",
          "type": "uint8"
        }
      ],
      "stateMutability": "view",
      "type": "function",
      "constant": true
    },
    {
      "inputs": [],
      "name": "ercToken",
      "outputs": [
        {
          "internalType": "contract IERC20",
          "name": "",
          "type": "address"
        }
      ],
      "stateMutability": "view",
      "type": "function",
      "constant": true
    },
    {
      "inputs": [],
      "name": "name",
      "outputs": [
        {
          "internalType": "string",
          "name": "",
          "type": "string"
        }
      ],
      "stateMutability": "view",
      "type": "function",
      "constant": true
    },
    {
      "inputs": [],
      "name": "seller",
      "outputs": [
        {
          "internalType": "address",
          "name": "",
          "type": "address"
        }
      ],
      "stateMutability": "view",
      "type": "function",
      "constant": true
    },
    {
      "inputs": [],
      "name": "sellingAmount",
      "outputs": [
        {
          "internalType": "uint256",
          "name": "",
          "type": "uint256"
        }
      ],
      "stateMutability": "view",
      "type": "function",
      "constant": true
    },
    {
      "inputs": [
        {
          "internalType": "uint256",
          "name": "_sellingAmount",
          "type": "uint256"
        }
      ],
      "name": "sellerInitialize",
      "outputs": [],
      "stateMutability": "payable",
      "type": "function",
      "payable": true
    },
    {
      "inputs": [],
      "name": "purchase",
      "outputs": [],
      "stateMutability": "payable",
      "type": "function",
      "payable": true
    },
    {
      "inputs": [],
      "name": "cancelPurchase",
      "outputs": [],
      "stateMutability": "payable",
      "type": "function",
      "payable": true
    },
    {
      "inputs": [],
      "name": "refundBuyer",
      "outputs": [],
      "stateMutability": "payable",
      "type": "function",
      "payable": true
    },
    {
      "inputs": [],
      "name": "itemReceived",
      "outputs": [],
      "stateMutability": "payable",
      "type": "function",
      "payable": true
    }
  ],
  "bytecode": "0x60806040523480156200001157600080fd5b506040516200179738038062001797833981810160405260208110156200003757600080fd5b81019080805190602001909291905050506040518060400160405280601581526020017f457363726f7720736d61727420636f6e74726163740000000000000000000000815250600390805190602001906200009592919062000103565b5080600460006101000a81548173ffffffffffffffffffffffffffffffffffffffff021916908373ffffffffffffffffffffffffffffffffffffffff1602179055506000600460146101000a81548160ff02191690836004811115620000f757fe5b021790555050620001a9565b828054600181600116156101000203166002900490600052602060002090601f016020900481019282601f106200014657805160ff191683800117855562000177565b8280016001018555821562000177579182015b828111156200017657825182559160200191906001019062000159565b5b5090506200018691906200018a565b5090565b5b80821115620001a55760008160009055506001016200018b565b5090565b6115de80620001b96000396000f3fe60806040526004361061009c5760003560e01c80637150d8ae116100645780637150d8ae146101bc5780637f2f767e146101fd578063893228a01461023e5780638f50b69e14610269578063ab460a2614610297578063e8a61cc8146102a15761009c565b806306fdde03146100a157806308551a53146101315780630c3f6acf1461017257806364ea507a146101a857806364edfbf0146101b2575b600080fd5b3480156100ad57600080fd5b506100b66102ab565b6040518080602001828103825283818151815260200191508051906020019080838360005b838110156100f65780820151818401526020810190506100db565b50505050905090810190601f1680156101235780820380516001836020036101000a031916815260200191505b509250505060405180910390f35b34801561013d57600080fd5b50610146610349565b604051808273ffffffffffffffffffffffffffffffffffffffff16815260200191505060405180910390f35b34801561017e57600080fd5b5061018761036f565b6040518082600481111561019757fe5b815260200191505060405180910390f35b6101b0610382565b005b6101ba61076f565b005b3480156101c857600080fd5b506101d1610ac1565b604051808273ffffffffffffffffffffffffffffffffffffffff16815260200191505060405180910390f35b34801561020957600080fd5b50610212610ae5565b604051808273ffffffffffffffffffffffffffffffffffffffff16815260200191505060405180910390f35b34801561024a57600080fd5b50610253610b0b565b6040518082815260200191505060405180910390f35b6102956004803603602081101561027f57600080fd5b8101908080359060200190929190505050610b11565b005b61029f610d31565b005b6102a96110a9565b005b60038054600181600116156101000203166002900480601f0160208091040260200160405190810160405280929190818152602001828054600181600116156101000203166002900480156103415780601f1061031657610100808354040283529160200191610341565b820191906000526020600020905b81548152906001019060200180831161032457829003601f168201915b505050505081565b600160009054906101000a900473ffffffffffffffffffffffffffffffffffffffff1681565b600460149054906101000a900460ff1681565b60008054906101000a900473ffffffffffffffffffffffffffffffffffffffff1673ffffffffffffffffffffffffffffffffffffffff163373ffffffffffffffffffffffffffffffffffffffff1614610443576040517f08c379a00000000000000000000000000000000000000000000000000000000081526004018080602001828103825260198152602001807f6f6e6c792062757965722063616e2063616c6c20746869732e0000000000000081525060200191505060405180910390fd5b600254600402600460009054906101000a900473ffffffffffffffffffffffffffffffffffffffff1673ffffffffffffffffffffffffffffffffffffffff166370a08231306040518263ffffffff1660e01b8152600401808273ffffffffffffffffffffffffffffffffffffffff16815260200191505060206040518083038186803b1580156104d257600080fd5b505afa1580156104e6573d6000803e3d6000fd5b505050506040513d60208110156104fc57600080fd5b810190808051906020019092919050505014610563576040517f08c379a000000000000000000000000000000000000000000000000000000000815260040180806020018281038252602581526020018061153a6025913960400191505060405180910390fd5b600460009054906101000a900473ffffffffffffffffffffffffffffffffffffffff1673ffffffffffffffffffffffffffffffffffffffff1663a9059cbb600160009054906101000a900473ffffffffffffffffffffffffffffffffffffffff166002546003026040518363ffffffff1660e01b8152600401808373ffffffffffffffffffffffffffffffffffffffff16815260200182815260200192505050602060405180830381600087803b15801561061d57600080fd5b505af1158015610631573d6000803e3d6000fd5b505050506040513d602081101561064757600080fd5b810190808051906020019092919050505050600460009054906101000a900473ffffffffffffffffffffffffffffffffffffffff1673ffffffffffffffffffffffffffffffffffffffff1663a9059cbb60008054906101000a900473ffffffffffffffffffffffffffffffffffffffff166002546040518363ffffffff1660e01b8152600401808373ffffffffffffffffffffffffffffffffffffffff16815260200182815260200192505050602060405180830381600087803b15801561070e57600080fd5b505af1158015610722573d6000803e3d6000fd5b505050506040513d602081101561073857600080fd5b81019080805190602001909291905050505060048060146101000a81548160ff0219169083600481111561076857fe5b0217905550565b600180600481111561077d57fe5b600460149054906101000a900460ff16600481111561079857fe5b1461080b576040517f08c379a00000000000000000000000000000000000000000000000000000000081526004018080602001828103825260128152602001807f537461746520697320696e636f7272656374000000000000000000000000000081525060200191505060405180910390fd5b336000806101000a81548173ffffffffffffffffffffffffffffffffffffffff021916908373ffffffffffffffffffffffffffffffffffffffff160217905550600254600460009054906101000a900473ffffffffffffffffffffffffffffffffffffffff1673ffffffffffffffffffffffffffffffffffffffff166370a0823160008054906101000a900473ffffffffffffffffffffffffffffffffffffffff166040518263ffffffff1660e01b8152600401808273ffffffffffffffffffffffffffffffffffffffff16815260200191505060206040518083038186803b1580156108f757600080fd5b505afa15801561090b573d6000803e3d6000fd5b505050506040513d602081101561092157600080fd5b810190808051906020019092919050505011610988576040517f08c379a00000000000000000000000000000000000000000000000000000000081526004018080602001828103825260218152602001806115886021913960400191505060405180910390fd5b600460009054906101000a900473ffffffffffffffffffffffffffffffffffffffff1673ffffffffffffffffffffffffffffffffffffffff166323b872dd60008054906101000a900473ffffffffffffffffffffffffffffffffffffffff16306002546002026040518463ffffffff1660e01b8152600401808473ffffffffffffffffffffffffffffffffffffffff1681526020018373ffffffffffffffffffffffffffffffffffffffff1681526020018281526020019350505050602060405180830381600087803b158015610a5e57600080fd5b505af1158015610a72573d6000803e3d6000fd5b505050506040513d6020811015610a8857600080fd5b8101908080519060200190929190505050506002600460146101000a81548160ff02191690836004811115610ab957fe5b021790555050565b60008054906101000a900473ffffffffffffffffffffffffffffffffffffffff1681565b600460009054906101000a900473ffffffffffffffffffffffffffffffffffffffff1681565b60025481565b6000806004811115610b1f57fe5b600460149054906101000a900460ff166004811115610b3a57fe5b14610bad576040517f08c379a00000000000000000000000000000000000000000000000000000000081526004018080602001828103825260128152602001807f537461746520697320696e636f7272656374000000000000000000000000000081525060200191505060405180910390fd5b33600160006101000a81548173ffffffffffffffffffffffffffffffffffffffff021916908373ffffffffffffffffffffffffffffffffffffffff16021790555081600281905550600460009054906101000a900473ffffffffffffffffffffffffffffffffffffffff1673ffffffffffffffffffffffffffffffffffffffff166323b872dd600160009054906101000a900473ffffffffffffffffffffffffffffffffffffffff16306002546002026040518463ffffffff1660e01b8152600401808473ffffffffffffffffffffffffffffffffffffffff1681526020018373ffffffffffffffffffffffffffffffffffffffff1681526020018281526020019350505050602060405180830381600087803b158015610ccd57600080fd5b505af1158015610ce1573d6000803e3d6000fd5b505050506040513d6020811015610cf757600080fd5b8101908080519060200190929190505050506001600460146101000a81548160ff02191690836004811115610d2857fe5b02179055505050565b600160009054906101000a900473ffffffffffffffffffffffffffffffffffffffff1673ffffffffffffffffffffffffffffffffffffffff163373ffffffffffffffffffffffffffffffffffffffff1614610df4576040517f08c379a000000000000000000000000000000000000000000000000000000000815260040180806020018281038252601a8152602001807f6f6e6c792073656c6c65722063616e2063616c6c20746869732e00000000000081525060200191505060405180910390fd5b6000806004811115610e0257fe5b600460149054906101000a900460ff166004811115610e1d57fe5b14610e90576040517f08c379a00000000000000000000000000000000000000000000000000000000081526004018080602001828103825260128152602001807f537461746520697320696e636f7272656374000000000000000000000000000081525060200191505060405180910390fd5b600254600202600460009054906101000a900473ffffffffffffffffffffffffffffffffffffffff1673ffffffffffffffffffffffffffffffffffffffff166370a08231306040518263ffffffff1660e01b8152600401808273ffffffffffffffffffffffffffffffffffffffff16815260200191505060206040518083038186803b158015610f1f57600080fd5b505afa158015610f33573d6000803e3d6000fd5b505050506040513d6020811015610f4957600080fd5b810190808051906020019092919050505014610fb0576040517f08c379a000000000000000000000000000000000000000000000000000000000815260040180806020018281038252602981526020018061155f6029913960400191505060405180910390fd5b600460009054906101000a900473ffffffffffffffffffffffffffffffffffffffff1673ffffffffffffffffffffffffffffffffffffffff1663a9059cbb600160009054906101000a900473ffffffffffffffffffffffffffffffffffffffff166002546002026040518363ffffffff1660e01b8152600401808373ffffffffffffffffffffffffffffffffffffffff16815260200182815260200192505050602060405180830381600087803b15801561106a57600080fd5b505af115801561107e573d6000803e3d6000fd5b505050506040513d602081101561109457600080fd5b81019080805190602001909291905050505050565b600160009054906101000a900473ffffffffffffffffffffffffffffffffffffffff1673ffffffffffffffffffffffffffffffffffffffff163373ffffffffffffffffffffffffffffffffffffffff161461116c576040517f08c379a000000000000000000000000000000000000000000000000000000000815260040180806020018281038252601a8152602001807f6f6e6c792073656c6c65722063616e2063616c6c20746869732e00000000000081525060200191505060405180910390fd5b600280600481111561117a57fe5b600460149054906101000a900460ff16600481111561119557fe5b14611208576040517f08c379a00000000000000000000000000000000000000000000000000000000081526004018080602001828103825260128152602001807f537461746520697320696e636f7272656374000000000000000000000000000081525060200191505060405180910390fd5b600254600402600460009054906101000a900473ffffffffffffffffffffffffffffffffffffffff1673ffffffffffffffffffffffffffffffffffffffff166370a08231306040518263ffffffff1660e01b8152600401808273ffffffffffffffffffffffffffffffffffffffff16815260200191505060206040518083038186803b15801561129757600080fd5b505afa1580156112ab573d6000803e3d6000fd5b505050506040513d60208110156112c157600080fd5b810190808051906020019092919050505014611328576040517f08c379a000000000000000000000000000000000000000000000000000000000815260040180806020018281038252602581526020018061153a6025913960400191505060405180910390fd5b600460009054906101000a900473ffffffffffffffffffffffffffffffffffffffff1673ffffffffffffffffffffffffffffffffffffffff1663a9059cbb600160009054906101000a900473ffffffffffffffffffffffffffffffffffffffff166002546002026040518363ffffffff1660e01b8152600401808373ffffffffffffffffffffffffffffffffffffffff16815260200182815260200192505050602060405180830381600087803b1580156113e257600080fd5b505af11580156113f6573d6000803e3d6000fd5b505050506040513d602081101561140c57600080fd5b810190808051906020019092919050505050600460009054906101000a900473ffffffffffffffffffffffffffffffffffffffff1673ffffffffffffffffffffffffffffffffffffffff1663a9059cbb60008054906101000a900473ffffffffffffffffffffffffffffffffffffffff166002546002026040518363ffffffff1660e01b8152600401808373ffffffffffffffffffffffffffffffffffffffff16815260200182815260200192505050602060405180830381600087803b1580156114d657600080fd5b505af11580156114ea573d6000803e3d6000fd5b505050506040513d602081101561150057600080fd5b8101908080519060200190929190505050506003600460146101000a81548160ff0219169083600481111561153157fe5b02179055505056fe636f6e747261637420646f6573206e6f74206861766520656e6f7567682062616c616e636574686973206164647265737320646f6573206e6f74206861766520656e6f7567682062616c616e63657573657220646f6573206e6f74206861766520656e6f7567682062616c616e6365a264697066735822122045b60c8661362b9d7db5619652e11c4fde47062a7d12bda9c03ebe2f0901717164736f6c63430007000033",
  "immutableReferences": {},
  "source": "pragma solidity ^0.7.0;\n\nimport \"@openzeppelin/contracts/token/ERC20/IERC20.sol\";\n\ncontract Escrow {\n\n    address public buyer;\n    address public seller;\n\n    uint public sellingAmount;\n\n    string public name;\n\n    IERC20 public ercToken;\n\n    enum State { Created, SellerInitialized, Active, Inactive, Release }\n\n    State public currentState;\n\n    modifier inState(State _state) {\n        require(\n            currentState == _state,\n            \"State is incorrect\"\n        );\n        _;\n    }\n\n    modifier onlyBuyer() {\n        require(\n            msg.sender == buyer,\n            \"only buyer can call this.\"\n        );\n        _;\n    }\n\n    modifier onlySeller() {\n        require(\n            msg.sender == seller,\n            \"only seller can call this.\"\n        );\n        _;\n    }\n\n    // constructor should be called by the seller for initialisation\n    constructor(address _tokenAddress) {\n        name = \"Escrow smart contract\";\n        \n        ercToken = IERC20(_tokenAddress);\n\n        currentState = State.Created;\n    }\n\n    // whoever calls this contract will be the seller\n    function sellerInitialize(uint _sellingAmount) public inState(State.Created) payable {\n        seller = msg.sender;\n\n        sellingAmount = _sellingAmount;\n        // seller sends over 2x of the amount to this smart contract\n        ercToken.transferFrom(seller, address(this), 2 * sellingAmount);\n\n        currentState = State.SellerInitialized;\n    }\n\n    // This is sent when the buyer decides to buy the item\n    function purchase() public inState(State.SellerInitialized) payable {\n        buyer = msg.sender;\n        require(\n            ercToken.balanceOf(buyer) > sellingAmount,\n            \"user does not have enough balance\"\n        );\n\n        // buyer sends over 2x of the amount to this smart contract\n        ercToken.transferFrom(buyer, address(this), 2 * sellingAmount);\n        \n        currentState = State.Active;\n    }\n\n    // if buyer doesn't initiate a purchase, allow the seller to get back the funds\n    function cancelPurchase() public onlySeller inState(State.Created) payable {\n        require(\n            ercToken.balanceOf(address(this)) == 2 * sellingAmount,\n            \"this address does not have enough balance\"\n        );\n\n        ercToken.transfer(seller, 2 * sellingAmount);\n    }\n\n    function refundBuyer() public onlySeller inState(State.Active) payable {\n        require(\n            ercToken.balanceOf(address(this)) == 4 * sellingAmount,\n            \"contract does not have enough balance\"\n        );\n\n        ercToken.transfer(seller, 2 * sellingAmount);\n        ercToken.transfer(buyer, 2 * sellingAmount);\n\n        currentState = State.Inactive;\n    }\n\n    // once buyer received the item, will call this to release funds to seller\n    function itemReceived() public onlyBuyer payable {\n        require(\n            ercToken.balanceOf(address(this)) == 4 * sellingAmount,\n            \"contract does not have enough balance\"\n        ); \n        \n        ercToken.transfer(seller, 3 * sellingAmount);\n        ercToken.transfer(buyer, sellingAmount);\n\n        currentState = State.Release;\n    }\n\n}",
  "sourcePath": "/Users/lowjiansheng/Documents/projects/ethereum-escrow/src/contracts/Escrow.sol",
  "compiler": {
    "name": "solc",
    "version": "0.7.0+commit.9e61f92b.Emscripten.clang"
  },
  "schemaVersion": "3.3.2",
  "updatedAt": "2020-12-07T08:11:50.119Z",
  "networkType": "ethereum",
  "devdoc": {
    "kind": "dev",
    "methods": {},
    "version": 1
  },
  "userdoc": {
    "kind": "user",
    "methods": {},
    "version": 1
  }
}