{
  "contractName": "Escrow",
  "abi": [
    {
      "inputs": [
        {
          "internalType": "address",
          "name": "_tokenAddress",
          "type": "address"
        },
        {
          "internalType": "uint256",
          "name": "_sellingAmount",
          "type": "uint256"
        }
      ],
      "stateMutability": "nonpayable",
      "type": "constructor"
    },
    {
      "inputs": [],
      "name": "buyer",
      "outputs": [
        {
          "internalType": "address",
          "name": "",
          "type": "address"
        }
      ],
      "stateMutability": "view",
      "type": "function"
    },
    {
      "inputs": [],
      "name": "ercToken",
      "outputs": [
        {
          "internalType": "contract IERC20",
          "name": "",
          "type": "address"
        }
      ],
      "stateMutability": "view",
      "type": "function"
    },
    {
      "inputs": [],
      "name": "name",
      "outputs": [
        {
          "internalType": "string",
          "name": "",
          "type": "string"
        }
      ],
      "stateMutability": "view",
      "type": "function"
    },
    {
      "inputs": [],
      "name": "seller",
      "outputs": [
        {
          "internalType": "address",
          "name": "",
          "type": "address"
        }
      ],
      "stateMutability": "view",
      "type": "function"
    },
    {
      "inputs": [],
      "name": "sellingAmount",
      "outputs": [
        {
          "internalType": "uint256",
          "name": "",
          "type": "uint256"
        }
      ],
      "stateMutability": "view",
      "type": "function"
    },
    {
      "inputs": [],
      "name": "confirmPurchase",
      "outputs": [],
      "stateMutability": "payable",
      "type": "function"
    },
    {
      "inputs": [],
      "name": "itemReceived",
      "outputs": [],
      "stateMutability": "payable",
      "type": "function"
    }
  ],
  "bytecode": "0x608060405234801561001057600080fd5b50604051610aec380380610aec8339818101604052604081101561003357600080fd5b8101908080519060200190929190805190602001909291905050506040518060400160405280601581526020017f457363726f7720736d61727420636f6e747261637400000000000000000000008152506003908051906020019061009992919061012a565b5033600160006101000a81548173ffffffffffffffffffffffffffffffffffffffff021916908373ffffffffffffffffffffffffffffffffffffffff1602179055508060028190555081600460006101000a81548173ffffffffffffffffffffffffffffffffffffffff021916908373ffffffffffffffffffffffffffffffffffffffff16021790555050506101c7565b828054600181600116156101000203166002900490600052602060002090601f016020900481019282601f1061016b57805160ff1916838001178555610199565b82800160010185558215610199579182015b8281111561019857825182559160200191906001019061017d565b5b5090506101a691906101aa565b5090565b5b808211156101c35760008160009055506001016101ab565b5090565b610916806101d66000396000f3fe6080604052600436106100705760003560e01c80637150d8ae1161004e5780637150d8ae146101505780637f2f767e14610191578063893228a0146101d2578063d6960697146101fd57610070565b806306fdde031461007557806308551a531461010557806364ea507a14610146575b600080fd5b34801561008157600080fd5b5061008a610207565b6040518080602001828103825283818151815260200191508051906020019080838360005b838110156100ca5780820151818401526020810190506100af565b50505050905090810190601f1680156100f75780820380516001836020036101000a031916815260200191505b509250505060405180910390f35b34801561011157600080fd5b5061011a6102a5565b604051808273ffffffffffffffffffffffffffffffffffffffff16815260200191505060405180910390f35b61014e6102cb565b005b34801561015c57600080fd5b506101656105bc565b604051808273ffffffffffffffffffffffffffffffffffffffff16815260200191505060405180910390f35b34801561019d57600080fd5b506101a66105e0565b604051808273ffffffffffffffffffffffffffffffffffffffff16815260200191505060405180910390f35b3480156101de57600080fd5b506101e7610606565b6040518082815260200191505060405180910390f35b61020561060c565b005b60038054600181600116156101000203166002900480601f01602080910402602001604051908101604052809291908181526020018280546001816001161561010002031660029004801561029d5780601f106102725761010080835404028352916020019161029d565b820191906000526020600020905b81548152906001019060200180831161028057829003601f168201915b505050505081565b600160009054906101000a900473ffffffffffffffffffffffffffffffffffffffff1681565b60008054906101000a900473ffffffffffffffffffffffffffffffffffffffff1673ffffffffffffffffffffffffffffffffffffffff163373ffffffffffffffffffffffffffffffffffffffff161461038c576040517f08c379a00000000000000000000000000000000000000000000000000000000081526004018080602001828103825260198152602001807f6f6e6c792062757965722063616e2063616c6c20746869732e0000000000000081525060200191505060405180910390fd5b600254600460009054906101000a900473ffffffffffffffffffffffffffffffffffffffff1673ffffffffffffffffffffffffffffffffffffffff166370a08231306040518263ffffffff1660e01b8152600401808273ffffffffffffffffffffffffffffffffffffffff16815260200191505060206040518083038186803b15801561041857600080fd5b505afa15801561042c573d6000803e3d6000fd5b505050506040513d602081101561044257600080fd5b8101908080519060200190929190505050116104a9576040517f08c379a000000000000000000000000000000000000000000000000000000000815260040180806020018281038252602581526020018061089b6025913960400191505060405180910390fd5b600460009054906101000a900473ffffffffffffffffffffffffffffffffffffffff1673ffffffffffffffffffffffffffffffffffffffff166323b872dd30600160009054906101000a900473ffffffffffffffffffffffffffffffffffffffff166002546040518463ffffffff1660e01b8152600401808473ffffffffffffffffffffffffffffffffffffffff1681526020018373ffffffffffffffffffffffffffffffffffffffff1681526020018281526020019350505050602060405180830381600087803b15801561057e57600080fd5b505af1158015610592573d6000803e3d6000fd5b505050506040513d60208110156105a857600080fd5b810190808051906020019092919050505050565b60008054906101000a900473ffffffffffffffffffffffffffffffffffffffff1681565b600460009054906101000a900473ffffffffffffffffffffffffffffffffffffffff1681565b60025481565b336000806101000a81548173ffffffffffffffffffffffffffffffffffffffff021916908373ffffffffffffffffffffffffffffffffffffffff160217905550600254600460009054906101000a900473ffffffffffffffffffffffffffffffffffffffff1673ffffffffffffffffffffffffffffffffffffffff166370a0823160008054906101000a900473ffffffffffffffffffffffffffffffffffffffff166040518263ffffffff1660e01b8152600401808273ffffffffffffffffffffffffffffffffffffffff16815260200191505060206040518083038186803b1580156106f857600080fd5b505afa15801561070c573d6000803e3d6000fd5b505050506040513d602081101561072257600080fd5b810190808051906020019092919050505011610789576040517f08c379a00000000000000000000000000000000000000000000000000000000081526004018080602001828103825260218152602001806108c06021913960400191505060405180910390fd5b600460009054906101000a900473ffffffffffffffffffffffffffffffffffffffff1673ffffffffffffffffffffffffffffffffffffffff166323b872dd60008054906101000a900473ffffffffffffffffffffffffffffffffffffffff16306002546040518463ffffffff1660e01b8152600401808473ffffffffffffffffffffffffffffffffffffffff1681526020018373ffffffffffffffffffffffffffffffffffffffff1681526020018281526020019350505050602060405180830381600087803b15801561085c57600080fd5b505af1158015610870573d6000803e3d6000fd5b505050506040513d602081101561088657600080fd5b81019080805190602001909291905050505056fe636f6e747261637420646f6573206e6f74206861766520656e6f7567682062616c616e63657573657220646f6573206e6f74206861766520656e6f7567682062616c616e6365a26469706673582212205aafaf2dcd67d440031d6ca2a78afce71a30a64d925d23a5c98b6238a052e1e964736f6c63430007000033",
  "immutableReferences": {},
  "source": "pragma solidity ^0.7.0;\n\nimport \"@openzeppelin/contracts/token/ERC20/ERC20.sol\";\n\ncontract Escrow {\n\n    address public buyer;\n    address public seller;\n\n    uint public sellingAmount;\n\n    string public name;\n\n    IERC20 public ercToken;\n\n    constructor(address _tokenAddress, uint _sellingAmount) {\n        name = \"Escrow smart contract\";\n        seller = msg.sender;\n        sellingAmount = _sellingAmount;\n        ercToken = IERC20(_tokenAddress);\n    }\n\n    modifier onlyBuyer() {\n        require(\n            msg.sender == buyer,\n            \"only buyer can call this.\"\n        );\n        _;\n    }\n\n    modifier onlySeller() {\n        require(\n            msg.sender == seller,\n            \"only seller can call this.\"\n        );\n        _;\n    }\n\n    // This is sent once the buyer decides to buy the item\n    function confirmPurchase() public payable {\n        buyer = msg.sender;\n        require(\n            ercToken.balanceOf(buyer) > sellingAmount,\n            \"user does not have enough balance\"\n        );\n\n        ercToken.transferFrom(buyer, address(this), sellingAmount);\n    }\n\n    // once buyer received the item, will call this to release funds to seller\n    function itemReceived() public onlyBuyer payable {\n        require(\n            ercToken.balanceOf(address(this)) > sellingAmount,\n            \"contract does not have enough balance\"\n        ); \n        \n        ercToken.transferFrom(address(this), seller, sellingAmount);\n    }\n\n}",
  "sourcePath": "/Users/lowjiansheng/Documents/projects/ethereum-escrow/src/contracts/Escrow.sol",
  "compiler": {
    "name": "solc",
    "version": "0.7.0+commit.9e61f92b.Emscripten.clang"
  },
  "schemaVersion": "3.3.2",
  "updatedAt": "2020-11-29T07:15:09.512Z",
  "devdoc": {
    "kind": "dev",
    "methods": {},
    "version": 1
  },
  "userdoc": {
    "kind": "user",
    "methods": {},
    "version": 1
  }
}