{
  "contractName": "Escrow",
  "abi": [
    {
      "inputs": [
        {
          "internalType": "address",
          "name": "_tokenAddress",
          "type": "address"
        },
        {
          "internalType": "uint256",
          "name": "_sellingAmount",
          "type": "uint256"
        }
      ],
      "stateMutability": "nonpayable",
      "type": "constructor"
    },
    {
      "inputs": [],
      "name": "buyer",
      "outputs": [
        {
          "internalType": "address",
          "name": "",
          "type": "address"
        }
      ],
      "stateMutability": "view",
      "type": "function"
    },
    {
      "inputs": [],
      "name": "currentState",
      "outputs": [
        {
          "internalType": "enum Escrow.State",
          "name": "",
          "type": "uint8"
        }
      ],
      "stateMutability": "view",
      "type": "function"
    },
    {
      "inputs": [],
      "name": "ercToken",
      "outputs": [
        {
          "internalType": "contract IERC20",
          "name": "",
          "type": "address"
        }
      ],
      "stateMutability": "view",
      "type": "function"
    },
    {
      "inputs": [],
      "name": "name",
      "outputs": [
        {
          "internalType": "string",
          "name": "",
          "type": "string"
        }
      ],
      "stateMutability": "view",
      "type": "function"
    },
    {
      "inputs": [],
      "name": "seller",
      "outputs": [
        {
          "internalType": "address",
          "name": "",
          "type": "address"
        }
      ],
      "stateMutability": "view",
      "type": "function"
    },
    {
      "inputs": [],
      "name": "sellingAmount",
      "outputs": [
        {
          "internalType": "uint256",
          "name": "",
          "type": "uint256"
        }
      ],
      "stateMutability": "view",
      "type": "function"
    },
    {
      "inputs": [],
      "name": "purchase",
      "outputs": [],
      "stateMutability": "payable",
      "type": "function"
    },
    {
      "inputs": [],
      "name": "cancelPurchase",
      "outputs": [],
      "stateMutability": "payable",
      "type": "function"
    },
    {
      "inputs": [],
      "name": "refundBuyer",
      "outputs": [],
      "stateMutability": "payable",
      "type": "function"
    },
    {
      "inputs": [],
      "name": "itemReceived",
      "outputs": [],
      "stateMutability": "payable",
      "type": "function"
    }
  ],
  "bytecode": "0x60806040523480156200001157600080fd5b50604051620016a4380380620016a4833981810160405260408110156200003757600080fd5b8101908080519060200190929190805190602001909291905050506040518060400160405280601581526020017f457363726f7720736d61727420636f6e74726163740000000000000000000000815250600390805190602001906200009f92919062000268565b5033600160006101000a81548173ffffffffffffffffffffffffffffffffffffffff021916908373ffffffffffffffffffffffffffffffffffffffff1602179055508060028190555081600460006101000a81548173ffffffffffffffffffffffffffffffffffffffff021916908373ffffffffffffffffffffffffffffffffffffffff160217905550600460009054906101000a900473ffffffffffffffffffffffffffffffffffffffff1673ffffffffffffffffffffffffffffffffffffffff166323b872dd600160009054906101000a900473ffffffffffffffffffffffffffffffffffffffff1630846040518463ffffffff1660e01b8152600401808473ffffffffffffffffffffffffffffffffffffffff1681526020018373ffffffffffffffffffffffffffffffffffffffff1681526020018281526020019350505050602060405180830381600087803b158015620001fd57600080fd5b505af115801562000212573d6000803e3d6000fd5b505050506040513d60208110156200022957600080fd5b8101908080519060200190929190505050506000600460146101000a81548160ff021916908360038111156200025b57fe5b021790555050506200030e565b828054600181600116156101000203166002900490600052602060002090601f016020900481019282601f10620002ab57805160ff1916838001178555620002dc565b82800160010185558215620002dc579182015b82811115620002db578251825591602001919060010190620002be565b5b509050620002eb9190620002ef565b5090565b5b808211156200030a576000816000905550600101620002f0565b5090565b611386806200031e6000396000f3fe6080604052600436106100915760003560e01c80637150d8ae116100595780637150d8ae146101b15780637f2f767e146101f2578063893228a014610233578063ab460a261461025e578063e8a61cc81461026857610091565b806306fdde031461009657806308551a53146101265780630c3f6acf1461016757806364ea507a1461019d57806364edfbf0146101a7575b600080fd5b3480156100a257600080fd5b506100ab610272565b6040518080602001828103825283818151815260200191508051906020019080838360005b838110156100eb5780820151818401526020810190506100d0565b50505050905090810190601f1680156101185780820380516001836020036101000a031916815260200191505b509250505060405180910390f35b34801561013257600080fd5b5061013b610310565b604051808273ffffffffffffffffffffffffffffffffffffffff16815260200191505060405180910390f35b34801561017357600080fd5b5061017c610336565b6040518082600381111561018c57fe5b815260200191505060405180910390f35b6101a5610349565b005b6101af610737565b005b3480156101bd57600080fd5b506101c6610a89565b604051808273ffffffffffffffffffffffffffffffffffffffff16815260200191505060405180910390f35b3480156101fe57600080fd5b50610207610aad565b604051808273ffffffffffffffffffffffffffffffffffffffff16815260200191505060405180910390f35b34801561023f57600080fd5b50610248610ad3565b6040518082815260200191505060405180910390f35b610266610ad9565b005b610270610e51565b005b60038054600181600116156101000203166002900480601f0160208091040260200160405190810160405280929190818152602001828054600181600116156101000203166002900480156103085780601f106102dd57610100808354040283529160200191610308565b820191906000526020600020905b8154815290600101906020018083116102eb57829003601f168201915b505050505081565b600160009054906101000a900473ffffffffffffffffffffffffffffffffffffffff1681565b600460149054906101000a900460ff1681565b60008054906101000a900473ffffffffffffffffffffffffffffffffffffffff1673ffffffffffffffffffffffffffffffffffffffff163373ffffffffffffffffffffffffffffffffffffffff161461040a576040517f08c379a00000000000000000000000000000000000000000000000000000000081526004018080602001828103825260198152602001807f6f6e6c792062757965722063616e2063616c6c20746869732e0000000000000081525060200191505060405180910390fd5b600254600402600460009054906101000a900473ffffffffffffffffffffffffffffffffffffffff1673ffffffffffffffffffffffffffffffffffffffff166370a08231306040518263ffffffff1660e01b8152600401808273ffffffffffffffffffffffffffffffffffffffff16815260200191505060206040518083038186803b15801561049957600080fd5b505afa1580156104ad573d6000803e3d6000fd5b505050506040513d60208110156104c357600080fd5b81019080805190602001909291905050501461052a576040517f08c379a00000000000000000000000000000000000000000000000000000000081526004018080602001828103825260258152602001806112e26025913960400191505060405180910390fd5b600460009054906101000a900473ffffffffffffffffffffffffffffffffffffffff1673ffffffffffffffffffffffffffffffffffffffff1663a9059cbb600160009054906101000a900473ffffffffffffffffffffffffffffffffffffffff166002546003026040518363ffffffff1660e01b8152600401808373ffffffffffffffffffffffffffffffffffffffff16815260200182815260200192505050602060405180830381600087803b1580156105e457600080fd5b505af11580156105f8573d6000803e3d6000fd5b505050506040513d602081101561060e57600080fd5b810190808051906020019092919050505050600460009054906101000a900473ffffffffffffffffffffffffffffffffffffffff1673ffffffffffffffffffffffffffffffffffffffff1663a9059cbb60008054906101000a900473ffffffffffffffffffffffffffffffffffffffff166002546040518363ffffffff1660e01b8152600401808373ffffffffffffffffffffffffffffffffffffffff16815260200182815260200192505050602060405180830381600087803b1580156106d557600080fd5b505af11580156106e9573d6000803e3d6000fd5b505050506040513d60208110156106ff57600080fd5b8101908080519060200190929190505050506003600460146101000a81548160ff0219169083600381111561073057fe5b0217905550565b600080600381111561074557fe5b600460149054906101000a900460ff16600381111561076057fe5b146107d3576040517f08c379a00000000000000000000000000000000000000000000000000000000081526004018080602001828103825260128152602001807f537461746520697320696e636f7272656374000000000000000000000000000081525060200191505060405180910390fd5b336000806101000a81548173ffffffffffffffffffffffffffffffffffffffff021916908373ffffffffffffffffffffffffffffffffffffffff160217905550600254600460009054906101000a900473ffffffffffffffffffffffffffffffffffffffff1673ffffffffffffffffffffffffffffffffffffffff166370a0823160008054906101000a900473ffffffffffffffffffffffffffffffffffffffff166040518263ffffffff1660e01b8152600401808273ffffffffffffffffffffffffffffffffffffffff16815260200191505060206040518083038186803b1580156108bf57600080fd5b505afa1580156108d3573d6000803e3d6000fd5b505050506040513d60208110156108e957600080fd5b810190808051906020019092919050505011610950576040517f08c379a00000000000000000000000000000000000000000000000000000000081526004018080602001828103825260218152602001806113306021913960400191505060405180910390fd5b600460009054906101000a900473ffffffffffffffffffffffffffffffffffffffff1673ffffffffffffffffffffffffffffffffffffffff166323b872dd60008054906101000a900473ffffffffffffffffffffffffffffffffffffffff16306002546002026040518463ffffffff1660e01b8152600401808473ffffffffffffffffffffffffffffffffffffffff1681526020018373ffffffffffffffffffffffffffffffffffffffff1681526020018281526020019350505050602060405180830381600087803b158015610a2657600080fd5b505af1158015610a3a573d6000803e3d6000fd5b505050506040513d6020811015610a5057600080fd5b8101908080519060200190929190505050506001600460146101000a81548160ff02191690836003811115610a8157fe5b021790555050565b60008054906101000a900473ffffffffffffffffffffffffffffffffffffffff1681565b600460009054906101000a900473ffffffffffffffffffffffffffffffffffffffff1681565b60025481565b600160009054906101000a900473ffffffffffffffffffffffffffffffffffffffff1673ffffffffffffffffffffffffffffffffffffffff163373ffffffffffffffffffffffffffffffffffffffff1614610b9c576040517f08c379a000000000000000000000000000000000000000000000000000000000815260040180806020018281038252601a8152602001807f6f6e6c792073656c6c65722063616e2063616c6c20746869732e00000000000081525060200191505060405180910390fd5b6000806003811115610baa57fe5b600460149054906101000a900460ff166003811115610bc557fe5b14610c38576040517f08c379a00000000000000000000000000000000000000000000000000000000081526004018080602001828103825260128152602001807f537461746520697320696e636f7272656374000000000000000000000000000081525060200191505060405180910390fd5b600254600202600460009054906101000a900473ffffffffffffffffffffffffffffffffffffffff1673ffffffffffffffffffffffffffffffffffffffff166370a08231306040518263ffffffff1660e01b8152600401808273ffffffffffffffffffffffffffffffffffffffff16815260200191505060206040518083038186803b158015610cc757600080fd5b505afa158015610cdb573d6000803e3d6000fd5b505050506040513d6020811015610cf157600080fd5b810190808051906020019092919050505014610d58576040517f08c379a00000000000000000000000000000000000000000000000000000000081526004018080602001828103825260298152602001806113076029913960400191505060405180910390fd5b600460009054906101000a900473ffffffffffffffffffffffffffffffffffffffff1673ffffffffffffffffffffffffffffffffffffffff1663a9059cbb600160009054906101000a900473ffffffffffffffffffffffffffffffffffffffff166002546002026040518363ffffffff1660e01b8152600401808373ffffffffffffffffffffffffffffffffffffffff16815260200182815260200192505050602060405180830381600087803b158015610e1257600080fd5b505af1158015610e26573d6000803e3d6000fd5b505050506040513d6020811015610e3c57600080fd5b81019080805190602001909291905050505050565b600160009054906101000a900473ffffffffffffffffffffffffffffffffffffffff1673ffffffffffffffffffffffffffffffffffffffff163373ffffffffffffffffffffffffffffffffffffffff1614610f14576040517f08c379a000000000000000000000000000000000000000000000000000000000815260040180806020018281038252601a8152602001807f6f6e6c792073656c6c65722063616e2063616c6c20746869732e00000000000081525060200191505060405180910390fd5b6001806003811115610f2257fe5b600460149054906101000a900460ff166003811115610f3d57fe5b14610fb0576040517f08c379a00000000000000000000000000000000000000000000000000000000081526004018080602001828103825260128152602001807f537461746520697320696e636f7272656374000000000000000000000000000081525060200191505060405180910390fd5b600254600402600460009054906101000a900473ffffffffffffffffffffffffffffffffffffffff1673ffffffffffffffffffffffffffffffffffffffff166370a08231306040518263ffffffff1660e01b8152600401808273ffffffffffffffffffffffffffffffffffffffff16815260200191505060206040518083038186803b15801561103f57600080fd5b505afa158015611053573d6000803e3d6000fd5b505050506040513d602081101561106957600080fd5b8101908080519060200190929190505050146110d0576040517f08c379a00000000000000000000000000000000000000000000000000000000081526004018080602001828103825260258152602001806112e26025913960400191505060405180910390fd5b600460009054906101000a900473ffffffffffffffffffffffffffffffffffffffff1673ffffffffffffffffffffffffffffffffffffffff1663a9059cbb600160009054906101000a900473ffffffffffffffffffffffffffffffffffffffff166002546002026040518363ffffffff1660e01b8152600401808373ffffffffffffffffffffffffffffffffffffffff16815260200182815260200192505050602060405180830381600087803b15801561118a57600080fd5b505af115801561119e573d6000803e3d6000fd5b505050506040513d60208110156111b457600080fd5b810190808051906020019092919050505050600460009054906101000a900473ffffffffffffffffffffffffffffffffffffffff1673ffffffffffffffffffffffffffffffffffffffff1663a9059cbb60008054906101000a900473ffffffffffffffffffffffffffffffffffffffff166002546002026040518363ffffffff1660e01b8152600401808373ffffffffffffffffffffffffffffffffffffffff16815260200182815260200192505050602060405180830381600087803b15801561127e57600080fd5b505af1158015611292573d6000803e3d6000fd5b505050506040513d60208110156112a857600080fd5b8101908080519060200190929190505050506002600460146101000a81548160ff021916908360038111156112d957fe5b02179055505056fe636f6e747261637420646f6573206e6f74206861766520656e6f7567682062616c616e636574686973206164647265737320646f6573206e6f74206861766520656e6f7567682062616c616e63657573657220646f6573206e6f74206861766520656e6f7567682062616c616e6365a2646970667358221220f4ab81cccb4bcae709198bd43c39f438a4600f37cf84db995770c7773807605c64736f6c63430007000033",
  "immutableReferences": {},
  "source": "pragma solidity ^0.7.0;\n\nimport \"@openzeppelin/contracts/token/ERC20/IERC20.sol\";\n\ncontract Escrow {\n\n    address public buyer;\n    address public seller;\n\n    uint public sellingAmount;\n\n    string public name;\n\n    IERC20 public ercToken;\n\n    enum State { Created, Active, Inactive, Release }\n\n    State public currentState;\n\n    modifier inState(State _state) {\n        require(\n            currentState == _state,\n            \"State is incorrect\"\n        );\n        _;\n    }\n\n    modifier onlyBuyer() {\n        require(\n            msg.sender == buyer,\n            \"only buyer can call this.\"\n        );\n        _;\n    }\n\n    modifier onlySeller() {\n        require(\n            msg.sender == seller,\n            \"only seller can call this.\"\n        );\n        _;\n    }\n\n    // constructor should be called by the seller for initialisation\n    constructor(address _tokenAddress, uint _sellingAmount) {\n        name = \"Escrow smart contract\";\n        seller = msg.sender;\n        sellingAmount = _sellingAmount;\n        ercToken = IERC20(_tokenAddress);\n\n        // seller sends over 2x of the amount to this smart contract\n        ercToken.transferFrom(seller, address(this), _sellingAmount);\n\n        currentState = State.Created;\n    }\n\n    // This is sent when the buyer decides to buy the item\n    function purchase() public inState(State.Created) payable {\n        buyer = msg.sender;\n        require(\n            ercToken.balanceOf(buyer) > sellingAmount,\n            \"user does not have enough balance\"\n        );\n\n        // buyer sends over 2x of the amount to this smart contract\n        ercToken.transferFrom(buyer, address(this), 2 * sellingAmount);\n        \n        currentState = State.Active;\n    }\n\n    // if buyer doesn't initiate a purchase, allow the seller to get back the funds\n    function cancelPurchase() public onlySeller inState(State.Created) payable {\n        require(\n            ercToken.balanceOf(address(this)) == 2 * sellingAmount,\n            \"this address does not have enough balance\"\n        );\n\n        ercToken.transfer(seller, 2 * sellingAmount);\n    }\n\n    function refundBuyer() public onlySeller inState(State.Active) payable {\n        require(\n            ercToken.balanceOf(address(this)) == 4 * sellingAmount,\n            \"contract does not have enough balance\"\n        );\n\n        ercToken.transfer(seller, 2 * sellingAmount);\n        ercToken.transfer(buyer, 2 * sellingAmount);\n\n        currentState = State.Inactive;\n    }\n\n    // once buyer received the item, will call this to release funds to seller\n    function itemReceived() public onlyBuyer payable {\n        require(\n            ercToken.balanceOf(address(this)) == 4 * sellingAmount,\n            \"contract does not have enough balance\"\n        ); \n        \n        ercToken.transfer(seller, 3 * sellingAmount);\n        ercToken.transfer(buyer, sellingAmount);\n\n        currentState = State.Release;\n    }\n\n}",
  "sourcePath": "/Users/lowjiansheng/Documents/projects/ethereum-escrow/src/contracts/Escrow.sol",
  "compiler": {
    "name": "solc",
    "version": "0.7.0+commit.9e61f92b.Emscripten.clang"
  },
  "schemaVersion": "3.3.2",
  "updatedAt": "2020-12-05T13:46:53.604Z",
  "networkType": "ethereum",
  "devdoc": {
    "kind": "dev",
    "methods": {},
    "version": 1
  },
  "userdoc": {
    "kind": "user",
    "methods": {},
    "version": 1
  }
}